:100000000C9466000C948E000C948E000C948E0060
:100010000C948E000C948E000C948E000C948E0028
:100020000C948E000C948E000C948E000C948E0018
:100030000C948E000C948E000C948E000C948E0008
:100040000C94F00C0C948E000C94370F0C94690FE8
:100050000C948E000C948E000C948E000C948E00E8
:100060000C943A050C948E00000000080002010078
:100070000003040700000000000000000102040863
:100080001020408001020408102001020408102002
:10009000040404040404040402020202020203032E
:1000A00003030303000000002300260029000000D2
:1000B0000000250028002B0000000000240027007D
:1000C0002A0006035004430B990F5D0B11241FBE39
:1000D000CFEFD8E0DEBFCDBF11E0A0E0B1E0E2ECB1
:1000E000F9E202C005900D92AA3CB107D9F723E0CE
:1000F000AAECB1E001C01D92A937B207E1F710E008
:10010000CAECD0E004C02297FE010E949513C23CC5
:10011000D107C9F70E94DD0F0C94D4140C94000091
:10012000CF92DF92EF92FF920F931F93E82FF92F58
:1001300005C0015011092109310961F1908196230F
:100140009417B9F305C0015011092109310911F1C2
:10015000908196239413F7CFC12CD12CE12CF12C54
:100160000AC08FEFC81AD80AE80AF80A0C151D054C
:100170002E053F0579F080818623841791F36C2D3D
:100180007D2D8E2D9F2D1F910F91FF90EF90DF9071
:10019000CF90089560E070E080E090E01F910F91B3
:1001A000FF90EF90DF90CF90089520E042E060E173
:1001B0008EEC91E00E94240761E171E08EEC91E009
:1001C0000E942C1068EE73E080E090E00E94690DC0
:1001D0008AEE91E00E94690B86E091E00E94C50BD7
:1001E0008CEE91E00E94F20A86EE91E00E94610C92
:1001F00068EE73E080E090E00E94690D8EEC91E083
:100200000E94FC0661E271E08EEC91E00E942C10ED
:1002100068EB7BE080E090E00E94690D8AEE91E05F
:100220000E946E0B81110DC041E060E08EEC91E008
:100230000E940A076CE271E08EEC91E00E942C10A3
:10024000EDCF8EEC91E00C94FC06CF92DF92EF9212
:10025000FF92CF9386EE91E00E94690C811125C038
:1002600086E091E00E94510C8EEC91E00E94FC0629
:100270008EEC91E00E94E2076BE371E08EEC91E07E
:100280000E942C1041E060E08EEC91E00E940A0791
:100290006CE471E08EEC91E00E942C1068EE73E04B
:1002A00080E090E00E94690DD5CF8EEC91E00E9435
:1002B000FC068AEC91E00E94BD0C88ECC82ED12C83
:1002C000E12CF12C8AEC91E00E94ED0C823008F4D4
:1002D00097C186EE91E00E94690C882309F441C120
:1002E0008AEE91E00E946E0B811105C086EE91E0CE
:1002F0000E94690C36C18CEE91E00E94060B86EEDE
:1003000091E00E948A0C8EEC91E00E94030768E560
:1003100071E08EEC91E00E942C1041E060E08EECE8
:1003200091E00E940A076EE671E08EEC91E00E9477
:100330002C108CEE91E00E943D0B843630F467E681
:1003400071E08EEC91E00E942C108CEE91E00E9406
:100350003D0B8A3030F467E671E08EEC91E00E944C
:100360002C108CEE91E00E943D0B4AE050E0682F8B
:100370008EEC91E00E948A1069E671E08EEC91E0CB
:100380000E942C1086EE91E00E94650C8436910547
:1003900030F467E671E08EEC91E00E942C1086EE5E
:1003A00091E00E94650C0A9730F467E671E08EECEC
:1003B00091E00E942C1086EE91E00E94650C4AE0CC
:1003C00050E0BC018EEC91E00E9491108CEE91E027
:1003D0000E943D0BC82F86EE91E00E94650C2C2FE9
:1003E00030E00F968217930708F4AAC08CEE91E0D4
:1003F0000E943D0BC82F86EE91E00E94650C2C2FC9
:1004000030E00F972817390708F0E2C099C08CEE4A
:1004100091E00E943D0BC82F86EE91E00E94650C92
:100420002C2F30E00F972817390708F05FCF86EEA2
:1004300091E00E94650C682F8CEE91E00E94350BD4
:100440008111CCC06BE486E091E00E94180C8EEC28
:1004500091E00E94030768E571E08EEC91E00E9454
:100460002C1041E060E08EEC91E00E940A076EE6FD
:1004700071E08EEC91E00E942C108CEE91E00E94D5
:100480003D0B843630F467E671E08EEC91E00E941B
:100490002C108CEE91E00E943D0B8A3030F467E620
:1004A00071E08EEC91E00E942C108CEE91E00E94A5
:1004B0003D0B4AE050E0682F8EEC91E00E948A10DC
:1004C00069E671E08EEC91E00E942C1086EE91E0DE
:1004D0000E94650C8436910530F467E671E08EEC7D
:1004E00091E00E942C1086EE91E00E94650C0A9724
:1004F00030F467E671E08EEC91E00E942C1086EEFD
:1005000091E00E94650C4AE050E0BC018EEC91E065
:100510000E9491108CEE91E00E94060B86EE91E015
:100520000E948A0C0E943A0DA70196010E94711345
:10053000672B682B692B21F48AEC91E00E94BD0C9B
:100540008CEE91E00E943D0BC82F86EE91E00E9458
:10055000650C2C2F30E00F968217930708F467CFB5
:1005600056CF8AEC91E00E94BD0C8AEC91E00E948B
:10057000ED0C823008F0A6CE86E091E00E94510C8E
:100580008EEC91E00E94FC0660E771E08EEC91E059
:100590000E942C1041E060E08EEC91E00E940A077E
:1005A0008AEC91E00E94ED0C4AE050E0682F8EEC5E
:1005B00091E00E948A106BE771E08EEC91E00E945E
:1005C0002C1068EC70E080E090E00E94690DC9CFCB
:1005D0006BE486E091E00E943E0CA4CF86EE91E0B1
:1005E0000E94650C682F8CEE91E00E94350B8130E3
:1005F00009F090CF6BE486E091E00E942B0C27CFAE
:10060000CF91FF90EF90DF90CF900895CF92EF922F
:100610000F938CEE91E00E94400B8AEE91E00E94D5
:10062000640B86EE91E00E945D0CC12CEE24E394F5
:100630000AE02BE04CE06DE08EEC91E00E94C207F6
:1006400063E08AEC91E00F91EF90CF900C94B70C9F
:1006500080911D0290E020911E02821B9109089555
:1006600020911E0280911D02281750F4E22FF0E025
:10067000E15EFD4F808190E02F5F20931E02089580
:100680008FEF9FEF0895E0911E0280911D02E81701
:1006900030F4F0E0E15EFD4F808190E008958FEF4F
:1006A0009FEF08950895CF92DF92EF92FF920F93FC
:1006B0001F93CF93DF937C01CB018A012091F90135
:1006C000222389F0EB016B01C40ED51ECC15DD058C
:1006D00069F06991D701ED91FC910190F081E02DD5
:1006E000C7010995F3CF642F0E941105C801DF915E
:1006F000CF911F910F91FF90EF90DF90CF900895D1
:10070000CF93DF931F92CDB7DEB769832091F901B4
:100710002223D1F02091FA01203240F021E030E094
:10072000FC013383228380E090E015C08091FB01BF
:10073000E82FF0E0E450FE4F998190838F5F809323
:10074000FB018093FA0105C061E0CE0101960E9491
:10075000110581E090E00F90DF91CF910895FC01A9
:100760001382128248EE53E060E070E044835583C8
:100770006683778383E891E0918380830895109264
:100780001E0210921D021092FB011092FA010C94AD
:10079000540481E08093F90160931C021092FB01E4
:1007A0001092FA0108950F93062F21E04091FA016B
:1007B0006CEF71E080911C020E94BA041092FB0160
:1007C0001092FA011092F9010F9108958F929F9261
:1007D000AF92BF92CF92DF92EF92FF920F931F934F
:1007E000CF93DF93EC01F62ED42E48015901EE2071
:1007F00019F10E94C9031E2D143008F013E01150A6
:10080000B8F0E881F98128E0129FB0011124A50118
:10081000940104C056954795379527956A95D2F768
:10082000CA01B9010190F081E02DCE010995E7CF11
:1008300060E0CE010E94D3034D2D413208F040E22A
:100840002C2D6FE172E08F2D0E94720410921E0217
:1008500080931D02DF91CF911F910F91FF90EF9038
:10086000DF90CF90BF90AF909F908F900895CF92E0
:10087000EF920F931F93C22EE12C00E010E098013D
:100880000E94E6031F910F91EF90CF90089521E011
:100890000C94370421E00C94370461E00C94D303EA
:1008A0008DEE91E00C94AF031092AC0281E0809346
:1008B000AA021092A90261E082E10E94AA0E61E000
:1008C00083E10E94AA0EE9EBF0E080818E7F8083B5
:1008D00080818D7F808388E48093B80085E4809355
:1008E000BC000895413208F043C09091AC029111D0
:1008F000FCCF91E09093AC022093AA022FEF2093BB
:100900003F0210928402240F209383029093AB0243
:100910009091AB02880F892B8093AB028091A90242
:10092000813061F41092A9028091AB028093BB00E8
:100930008091BC0083FDF8CF85EC01C085EE8093EB
:10094000BC008091AC028130E1F380918402841775
:1009500010F44091840225E832E0FB01D9018A2F8E
:10096000821B841718F48D918193F9CF842F0895F9
:1009700080E008950F93413208F04AC09091AC0294
:100980009111FCCF92E09093AC020093AA029FEFEA
:1009900090933F021092840240938302FB0165E82A
:1009A00072E0DB019A2F961B941718F491919D9396
:1009B000F9CF1092AB029091AB02880F892B8093F4
:1009C000AB028091A902813061F41092A90280915A
:1009D000AB028093BB008091BC0083FDF8CF85EC17
:1009E00001C085EE8093BC00222321F08091AC02EF
:1009F0008230E1F380913F028F3F61F080913F02AE
:100A0000803251F080913F02803341F483E007C08F
:100A100081E005C080E003C082E001C084E00F9166
:100A20000895613298F42091AC02243089F46093E7
:100A30006102FC0183E692E0DC012A2F281B2617C5
:100A400018F421912D93F9CF80E0089581E0089565
:100A500082E0089585ED8093BC008091BC0084FD08
:100A6000FCCF1092AC02089585EC8093BC001092EC
:100A7000AC0208951F920F920FB60F9211242F937C
:100A80003F934F935F936F937F938F939F93AF9316
:100A9000BF93EF93FF938091B900887F803609F46C
:100AA0009EC078F5883209F45DC090F4803109F475
:100AB00056C038F4882309F4F5C0883009F44FC0D3
:100AC000F5C0883109F44EC0803209F45FC0EEC031
:100AD000803409F46AC058F4803309F457C088336D
:100AE00009F0E4C080933F020E943405DFC08035E6
:100AF00009F44FC0883509F45DC0883409F0D6C0C8
:100B0000D3C0883909F4C4C0A8F4883709F467C091
:100B100038F4883609F463C0803709F460C0C6C071
:100B2000883809F4B5C0803909F45FC0803809F00D
:100B3000BDC05BC0803B09F483C038F4803A09F43F
:100B400066C0883A09F47CC0B1C0803C09F4A4C0F6
:100B5000883C09F4A1C0883B09F487C0A7C08091F4
:100B6000AB0210C09091840280918302981770F5B7
:100B7000E091840281E08E0F80938402F0E0EB57D5
:100B8000FD4F80818093BB0085EC83C080933F0242
:100B90008BC0E091840281E08E0F8093840280916B
:100BA000BB00F0E0EB57FD4F808390918402809171
:100BB00083026BC0E091840281E08E0F80938402F7
:100BC0008091BB00F0E0EB57FD4F80838091AA023B
:100BD00081116AC081E08093A90284EA5EC083E04B
:100BE0008093AC0210924002CFCF809140028032BD
:100BF00008F04EC0E091400281E08E0F80934002E9
:100C00008091BB00F0E0EF5BFD4F8083BDCF0E9481
:100C1000340580914002803230F4E0914002F0E0EF
:100C2000EF5BFD4F10826091400270E0E091A50201
:100C3000F091A60281E492E009951092400236C03C
:100C400084E08093AC021092620210926102E09103
:100C5000A702F091A802099580916102811105C057
:100C600081E08093610210926302E091620281E070
:100C70008E0F80936202F0E0ED59FD4F80818093EA
:100C8000BB009091620280916102981708F47CCFBA
:100C900085E88093BC000AC085EC8093BC0010926C
:100CA000AC0204C010923F020E942A05FF91EF910E
:100CB000BF91AF919F918F917F916F915F914F9174
:100CC0003F912F910F900FBE0F901F901895CF93CB
:100CD000DF93EC0160E08E810E94AA0E81E090E03B
:100CE0000E94A30D61E08E810E94AA0E81E090E037
:100CF0000E94A30D60E08E810E94AA0E84E690E01F
:100D0000DF91CF910C94A30DEF92FF920F931F935D
:100D1000CF93DF938C01C0E0D0E0E62EF12CB70139
:100D20000C2E02C0759567950A94E2F76170F80180
:100D3000EC0FFD1F87810E94AA0E2196C430D105B9
:100D400071F7C801DF91CF911F910F91FF90EF9044
:100D50000C946706EF92FF920F931F93CF93DF934C
:100D60008C01C0E0D0E0E62EF12CB7010C2E02C0C1
:100D7000759567950A94E2F76170F801EC0FFD1F15
:100D800087810E94AA0E2196C830D10571F7C8014B
:100D9000DF91CF911F910F91FF90EF900C94670618
:100DA0001F93CF93DF93EC01162F642F8C810E9449
:100DB000AA0E8D818F3F19F060E00E94AA0E8F85E8
:100DC000612F84FF06C0CE01DF91CF911F910C945B
:100DD000AA0670E084E0759567958A95E1F7CE01E3
:100DE0000E948406612FCE01DF91CF911F910C9458
:100DF000840640E00C94D00661E00E94F90680ED84
:100E000097E00C94A30D62E00E94F90680ED97E054
:100E10000C94A30D443008F043E0FC0123894217F1
:100E200010F04FEF420FFC01E40FF11D2489260F53
:100E30002068622F0C94F906FC016089262F24603B
:100E4000208B6C600C94F9060F931F93CF93DF9364
:100E5000EC01423018F08F8588608F874B8B1C8A9D
:100E600080E48D8B6E8B70E0605C7F4F6F8B2223F4
:100E700029F0413019F48F8584608F8761E08C817F
:100E80000E94710E8D818F3F19F061E00E94710EFA
:100E900061E08E810E94710E00E010E08F8584FF7A
:100EA00003C088E090E002C084E090E008171907D2
:100EB00054F4FE01E00FF11F61E087810E94710E82
:100EC0000F5F1F4FEBCF80E593EC0E94A30D60E016
:100ED0008C810E94AA0E60E08E810E94AA0E8D81F4
:100EE0008F3F19F060E00E94AA0E6F8564FD1DC05F
:100EF00063E0CE010E94840684E991E10E94A30D83
:100F000063E0CE010E94840684E991E10E94A30D72
:100F100063E0CE010E94840686E990E00E94A30D62
:100F200062E0CE010E94840616C06062CE010E947B
:100F3000F90684E991E10E94A30D6F856062CE01FC
:100F40000E94F90686E990E00E94A30D6F85606219
:100F5000CE010E94F9066F856062CE010E94F906FB
:100F600084E0888BCE010E941C07CE010E94FC0603
:100F700082E0898B66E0CE01DF91CF911F910F91C6
:100F80000C94F906CF92EF920F93FC011382128218
:100F900083E991E09183808364838FEF8583468327
:100FA00027830087E186C2861386148615861686F7
:100FB000178620E041E060E1CF010F91EF90CF90E4
:100FC0000C942407FC016089262F2160208B696026
:100FD0000C94F90641E00E94D00681E090E008956B
:100FE00022EA31E0FC01318320830895089522EA4A
:100FF00031E0FC0131832083089522EA31E0FC01D5
:10100000318320830C94EC0F22EA31E0FC01318320
:1010100020830C94EC0F0F931F93CF93DF938C01DD
:10102000EB0188E2FB0111928A95E9F74BE050E071
:1010300067E971E0CE010E94C5141B8641E050E0D3
:1010400060E070E04C875D876E877F87F8014481A0
:10105000558166817781488B598B6A8B7B8B43E006
:1010600050E060E070E04C8B5D8B6E8B7F8B1CA240
:101070001DA21EA21FA2188E198E1A8E1B8E1C8EE8
:101080001D8E1E8E1F8E4AE057ED63E27CE348A35F
:1010900059A36AA37BA3DF91CF911F910F9108956C
:1010A000FC0180EB91E091838083448355836683C8
:1010B0007783238308951F93CF93DF931F92CDB738
:1010C000DEB7162FFC0163818DEE91E049830E940B
:1010D000C903612F8DEE91E00E9480034981642F46
:1010E0008DEE91E00E9480038DEE91E00E944D0410
:1010F00081E00F90DF91CF911F910895462FFC0161
:10110000608771876DE370E00E945B086EE170E0BC
:1011100080E090E00C94690DFF920F931F93CF93A2
:10112000DF93EC01F62E0885198560E070E00E94DF
:101130007E0869E170E080E090E00E94690D40E087
:1011400067E070E0CE010E945B08FF2011F040E8EC
:1011500001C040E06FE370E0CE010E945B086AE0EE
:1011600070E080E090E00E94690DB801CE010E941D
:101170007E0864E170E080E090E0DF91CF911F9104
:101180000F91FF900C94690D1F93CF93DF93EC01A7
:10119000162F6B818DEE91E00E94C903612F8DEEB9
:1011A00091E00E9480038DEE91E00E944D0441E0A9
:1011B0006B818DEE91E00E9447048DEE91E00E94DC
:1011C0003003DF91CF911F9108950F931F93CF9319
:1011D000DF93EC018B018DEE91E00E94BF0360E094
:1011E00070E0CE010E94C408803A61F460E070E0D3
:1011F000CE010E947E0840E26FE370E0CE010E94C3
:101200005B080FC068EE73E080E090E00E94690D1B
:1012100060E070E0CE010E94C408803A39F380E0BB
:101220003DC060E070E0CE010E94C408803A39F011
:101230006AE070E080E090E00E94690DF2CF62E326
:1012400070E080E090E00E94690D40E06EE370E0A5
:10125000CE010E945B086AE070E080E090E00E94AE
:10126000690D40E067E070E0CE010E945B0840E05D
:101270006FE370E0CE010E945B086AE070E080E0FE
:1012800090E00E94690DB801CE010E947E0864E1E1
:1012900070E080E090E00E94690D81E0DF91CF91E5
:1012A0001F910F910895CF92DF92FF920F931F939A
:1012B000CF93DF931F92CDB7DEB76C01F62E042FCC
:1012C000122FFC0163818DEE91E059830E94C903C6
:1012D0006F2D8DEE91E00E9480038DEE91E00E94D3
:1012E0004D04412FF60163818DEE91E00E94470489
:1012F000F02EC02E5981D52E8C2D8F19811740F4D8
:101300008DEE91E00E943003F60181936F01F4CFDE
:1013100081E00F90DF91CF911F910F91FF90DF90AF
:10132000CF900895AF92BF92CF92DF92EF92FF924B
:101330000F931F93CF93DF9300D000D000D0CDB791
:10134000DEB78C01CB015A012CE0F80111922A95ED
:10135000E9F7AE014F5F5F4F26E0FA0111922A953F
:10136000E9F726E0B5010E9453096A8170E0762F03
:1013700066278981682BCC80D12CDC2CCC248B81F6
:10138000C82AEE80F12CFE2CEE248D81E82AF4E1AF
:10139000AF16B104D9F05CF4E8E0AE16B10409F47C
:1013A00075C0FEE0AF16B10409F43FC0A4C088E2E6
:1013B000A816B10409F46AC0EEE2AE16B10409F44D
:1013C00065C0FAE1AF16B10481F195C0882777FDB9
:1013D0008095982F0E94761220E030E041E654E498
:1013E0000E94E011F8016083718382839383B601C8
:1013F000882777FD8095982F0E94761220E030E0B4
:1014000041E654E40E94E011F80164837583868309
:101410009783B701882777FD8095982F0E947612D1
:1014200020E030E041E654E45FC0882777FD8095F6
:10143000982F0E94761220E030E040E85DE30E94A1
:101440000213F8016083718382839383B601882736
:1014500077FD8095982F0E94761220E030E040E8DA
:101460005DE30E940213F80164837583868397838A
:10147000B701882777FD8095982F0E94761220E08B
:1014800030E040E85DE30E94021330C0882777FD1A
:101490008095982F0E94761220E030E048EC52E4CC
:1014A0000E94E011F8016083718382839383B60107
:1014B000882777FD8095982F0E94761220E030E0F3
:1014C00048EC52E40E94E011F8016483758386833E
:1014D0009783B701882777FD8095982F0E94761211
:1014E00020E030E048EC52E40E94E011F80160870F
:1014F000718782879387C80126960FB6F894DEBF5E
:101500000FBECDBFDF91CF911F910F91FF90EF9054
:10151000DF90CF90BF90AF900895EF92FF920F931E
:101520001F93CF93DF93CDB7DEB72C970FB6F89408
:10153000DEBF0FBECDBF7C018B0184E2FB011192A7
:101540008A95E9F784E290E0A0E0B0E0FB018083B7
:101550009183A283B383F70184819581A681B781AA
:10156000FB0184839583A683B78383E090E0A0E0AA
:10157000B0E080879187A287B3870E943A0DF80177
:10158000608B718B828B938B4AE150E0B701CE0167
:1015900001960E94920989819A81AB81BC81F801F0
:1015A000848B958BA68BB78B8D819E81AF81B885FF
:1015B000808F918FA28FB38F89859A85AB85BC85EB
:1015C000848F958FA68FB78F81E02C960FB6F894F5
:1015D000DEBF0FBECDBFDF91CF911F910F91FF9066
:1015E000EF90089569E070E085EC92E00E94E508D4
:1015F000811101C0FFCF61E085EC92E00E948C0870
:1016000062E370E080E090E00C94690D0F931F930B
:10161000CF93DF93CDB7DEB72C970FB6F894DEBF2C
:101620000FBECDBF8C014AE150E065EC72E0CE0107
:1016300001960E94920920E030E044EB52E4698177
:101640007A818B819C810E947C110E944812862F96
:10165000F80160832C960FB6F894DEBF0FBECDBFA5
:10166000DF91CF911F910F910895FC019081961BFE
:1016700081E0953B08F480E00895FC0180810895A5
:10168000FC0110820895CF92EF920F9328E24FEF62
:101690005FEFBA0185EC92E00E945008C12CEE2465
:1016A000E3940AE02BE04CE06DE08DEA92E00E94CA
:1016B000C2070F91EF90CF90089582EA91E0909346
:1016C000C6028093C50208952FEFFC012083218379
:1016D000089560E0FC0180810C94710ECF93DF933C
:1016E000EC0188810E94E00E892B51F081E0988105
:1016F000913009F080E00E94E00E892B19F403C0BC
:1017000081E001C080E0DF91CF910895CF92DF9218
:10171000FF920F931F93CF93DF931F92CDB7DEB746
:101720008C01F22EC62ED12C423068F461E0FC010F
:10173000EC0DFD1D808149830E94AA0E4981411153
:101740000DC061E00CC060E0FC01EC0DFD1D80816E
:1017500049830E94AA0E4981423099F360E0F80162
:10176000EC0DFD1D82810E94AA0E6F2D70E0F60126
:10177000E00FF11F84810F90DF91CF911F910F91A6
:10178000FF90DF90CF900C94E90DFF920F931F9381
:10179000CF93DF93EC0161E08A850E94710E8E0188
:1017A00082E0F82E61E0F80181918F010E94710EB4
:1017B00061E0F80181810E94710E61E0F80183818E
:1017C0000E94710EFA9471F760E088810E94AA0E5F
:1017D00060E08A810E94AA0E60E089810E94AA0EC0
:1017E00060E08B81DF91CF911F910F91FF900C945E
:1017F000AA0E1F93CF93DF93EC01162F60E0888130
:101800000E94AA0E60E08A810E94AA0E60E089818F
:101810000E94AA0E60E08B810E94AA0EC10FD11D0A
:1018200060E070E08C81DF91CF911F910C94E90D05
:101830001F93CF93DF93EC01162F262F42E060E039
:101840000E94860B212F42E061E0CE01DF91CF9113
:101850001F910C94860B1F93CF93DF93EC01162FEF
:10186000262F41E060E00E94860B212F41E061E0DD
:10187000CE01DF91CF911F910C94860B1F93CF93D4
:10188000DF93EC01162F262F42E060E00E94860BCA
:10189000212F41E061E0CE01DF91CF911F910C94A7
:1018A000860BCF93DF93EC0160E00E94F90B61E0BF
:1018B000CE01DF91CF910C94F90BFC0111821082C3
:1018C00008958DEE91E00C94BF03FC01808191811D
:1018D0000895CF93DF93EC0142E050E068E070E0C0
:1018E0008DEE91E00E944A048DEE91E00E9430035B
:1018F0008A838DEE91E00E9430038B839A81282F9A
:1019000030E0392B81E02F3F3F4F09F480E0DF9139
:10191000CF910895CF93DF93EC0142E050E068E06F
:1019200070E08DEE91E00E944A048DEE91E00E94FD
:1019300030038A838DEE91E00E9430038B839A817D
:10194000482F50E0592B9A01245B3109283681E059
:1019500038071CF02856314005C037FF03C09A01F4
:101960002C543F4F39832883DF91CF910895FC0198
:1019700011821282138260830895CF93DF93EC016A
:1019800061E088810E94710E60E088810E94AA0E49
:1019900082E090E00E94A30D61E088810E94AA0E7F
:1019A00085E090E00E94A30D60E088810E94AA0E6D
:1019B00060E088810E94710E20E432E44FE050E044
:1019C00061E088810E94090F862F69836AE30E9483
:1019D00065138B83DF91CF910895FC018381089576
:1019E0001F920F920FB60F9211242F933F938F9354
:1019F0009F93AF93BF938091D0029091D102A09119
:101A0000D202B091D3023091CF0223E0230F2D37C1
:101A100020F40196A11DB11D05C026E8230F0296F2
:101A2000A11DB11D2093CF028093D0029093D102CB
:101A3000A093D202B093D3028091D4029091D502A8
:101A4000A091D602B091D7020196A11DB11D80933D
:101A5000D4029093D502A093D602B093D702BF913F
:101A6000AF919F918F913F912F910F900FBE0F904B
:101A70001F9018952FB7F8946091D0027091D10201
:101A80008091D2029091D3022FBF08953FB7F8946E
:101A90008091D4029091D502A091D602B091D70244
:101AA00026B5A89B05C02F3F19F00196A11DB11DB9
:101AB0003FBF6627782F892F9A2F620F711D811DD6
:101AC000911D42E0660F771F881F991F4A95D1F735
:101AD00008958F929F92AF92BF92CF92DF92EF9232
:101AE000FF926B017C010E94460D4B015C01C11409
:101AF000D104E104F104F1F00E9497100E94460D18
:101B0000681979098A099B09683E73408105910526
:101B100070F321E0C21AD108E108F10888EE880EBE
:101B200083E0981EA11CB11CC114D104E104F1048E
:101B300029F7DDCFFF90EF90DF90CF90BF90AF906F
:101B40009F908F9008958230910538F0880F991FEB
:101B5000880F991F05970197F1F70895789484B538
:101B6000826084BD84B5816084BD85B5826085BD99
:101B700085B5816085BDEEE6F0E08081816080837F
:101B8000E1E8F0E010828081826080838081816062
:101B90008083E0E8F0E0808181608083E1EBF0E029
:101BA000808184608083E0EBF0E0808181608083CD
:101BB000EAE7F0E0808184608083808182608083B6
:101BC0008081816080838081806880831092C100E1
:101BD00008951F93CF93DF93182FEB0161E00E94CC
:101BE000710E209711F460E004C0CF3FD10539F4A5
:101BF00061E0812FDF91CF911F910C94AA0EE12F0C
:101C0000F0E0E859FF4FE491E330F9F048F4E130B7
:101C1000B9F0E230A1F584B5806284BDC8BD34C09E
:101C2000E730E9F0E83019F1E43049F580918000BF
:101C3000806280938000D0938B00C0938A0024C080
:101C400084B5806884BDC7BD1FC080918000806856
:101C500080938000D0938900C093880015C0809144
:101C6000B00080688093B000C093B3000DC0809135
:101C7000B00080628093B000C093B40005C0C0384B
:101C8000D1050CF0B5CFAFCFDF91CF911F91089563
:101C9000833081F028F4813099F08230A1F00895EA
:101CA0008730A9F08830B9F08430D1F48091800079
:101CB0008F7D03C0809180008F778093800008958E
:101CC00084B58F7702C084B58F7D84BD08958091DF
:101CD000B0008F7703C08091B0008F7D8093B000FB
:101CE0000895CF93DF9390E0FC01E458FF4F2491D7
:101CF000FC01E057FF4F8491882349F190E0880F61
:101D0000991FFC01E854FF4FA591B49182559F4F54
:101D1000FC01C591D4919FB7611108C0F8948C91D2
:101D2000209582238C93888182230AC0623051F4EB
:101D3000F8948C91322F309583238C938881822B59
:101D4000888304C0F8948C91822B8C939FBFDF9181
:101D5000CF9108950F931F93CF93DF931F92CDB729
:101D6000DEB7282F30E0F901E859FF4F8491F901DF
:101D7000E458FF4F1491F901E057FF4F04910023FD
:101D8000C9F0882321F069830E94480E6981E02F01
:101D9000F0E0EE0FFF1FE255FF4FA591B4919FB702
:101DA000F8948C91611103C01095812301C0812B9F
:101DB0008C939FBF0F90DF91CF911F910F9108954A
:101DC000CF93DF93282F30E0F901E859FF4F84913A
:101DD000F901E458FF4FD491F901E057FF4FC49146
:101DE000CC2391F081110E94480EEC2FF0E0EE0F11
:101DF000FF1FEC55FF4FA591B4912C912D2381E04D
:101E000090E021F480E002C080E090E0DF91CF918B
:101E100008950F931F93762F90E0FC01E458FF4F35
:101E20006491FC01E057FF4FE4917111762FF0E0CF
:101E3000EE0FFF1FEC55FF4F8591949189019A0198
:101E40003F70472F0E949000611571058105910533
:101E500031F06F5F7F4F8F4F9F4F9F7003C060E0E7
:101E600070E0CB011F910F9108950E94C0141F9242
:101E70000F920FB60F9211242F938F939F93EF938E
:101E8000FF93E091E802F091E9028081E091EE0297
:101E9000F091EF0282FD12C090818091F1028F5F7C
:101EA0008F732091F202821751F0E091F102F0E07D
:101EB000E852FD4F958F8093F10201C08081FF9120
:101EC000EF919F918F912F910F900FBE0F901F90C8
:101ED00018951F920F920FB60F9211242F933F93D4
:101EE0004F935F936F937F938F939F93AF93BF9322
:101EF000EF93FF9388ED92E00E94D310FF91EF9152
:101F0000BF91AF919F918F917F916F915F914F9111
:101F10003F912F910F900FBE0F901F90189588ED55
:101F200092E00E94981021E0892B09F420E0822F92
:101F300008951092DB021092DA0288EE93E0A0E09E
:101F4000B0E08093DC029093DD02A093DE02B093B8
:101F5000DF028EEB91E09093D9028093D80285EC5A
:101F600090E09093E5028093E40284EC90E09093FB
:101F7000E7028093E60280EC90E09093E902809380
:101F8000E80281EC90E09093EB028093EA0282EC0D
:101F900090E09093ED028093EC0286EC90E09093B9
:101FA000EF028093EE021092F1021092F202109270
:101FB000F3021092F402089508950E94AE0D0E945B
:101FC000DC0F0E94D500C5ECD0E10E9425012097CE
:101FD000E1F30E94C510F9CF0C943114CF92DF9237
:101FE000EF92FF920F931F93CF93DF937C016A01CF
:101FF000EB0100E010E00C151D0571F06991D701AF
:10200000ED91FC910190F081E02DC7010995892B9C
:1020100019F00F5F1F4FEFCFC801DF91CF911F91D4
:102020000F91FF90EF90DF90CF90089561157105AB
:1020300081F0DB010D900020E9F7AD01415051091D
:10204000461B570BDC01ED91FC910280F381E02DE2
:10205000099480E090E008950C9416108F929F925E
:10206000AF92BF92DF92EF92FF920F931F93CF93A5
:10207000DF93CDB7DEB7A1970FB6F894DEBF0FBEE2
:10208000CDBF7C01F42FD52ECB0119A2223008F44C
:102090002AE08E010F5D1F4F822E912CA12CB12CB6
:1020A0006F2F7D2DA50194010E947113F22FD32E65
:1020B000CA01015011096A3014F4E0E301C0E7E3FA
:1020C000E60FD801EC93232B242B252B49F7B801DD
:1020D000C7010E941610A1960FB6F894DEBF0FBE7E
:1020E000CDBFDF91CF911F910F91FF90EF90DF90C7
:1020F000BF90AF909F908F9008952115310541F4C6
:10210000DC01ED91FC910190F081E02D642F0994A8
:102110000C942E109A01462F50E060E070E00C9471
:102120007D109A01AB0160E070E00C947D10089581
:10213000FC01818D228D90E0805C9F4F821B910974
:102140008F7399270895FC01918D828D981731F036
:10215000828DE80FF11D858D90E008958FEF9FEF40
:102160000895FC01918D828D981761F0828DDF01B9
:10217000A80FB11D5D968C91928D9F5F9F73928F7A
:1021800090E008958FEF9FEF08958FE89FE0892BEF
:1021900049F080E090E0892B29F00E948F0F811197
:1021A0000C9400000895FC01848DDF01A80FB11D7F
:1021B000A35ABF4F2C91848D90E001968F7399277D
:1021C000848FA689B7892C93A089B1898C9180646A
:1021D0008C93938D848D981306C00288F389E02D2B
:1021E00080818F7D80830895CF93DF93EC01888D6C
:1021F0008823C9F0EA89FB89808185FD05C0A8890B
:10220000B9898C9186FD0FC00FB607FCF5CF808190
:1022100085FFF2CFA889B9898C9185FFEDCFCE01DA
:102220000E94D310E7CFDF91CF910895CF92DF9234
:10223000FF920F931F93CF93DF931F92CDB7DEB71B
:102240006C0181E0D60158968C9358975B969C91CF
:102250005B975C968C915C97981307C05096ED91B4
:10226000FC915197808185FD2EC0F601038D10E011
:102270000F5F1F4F0F731127F02EF601848DF81298
:1022800011C00FB607FCF9CFD6015096ED91FC9125
:102290005197808185FFF1CFC60169830E94D310D9
:1022A0006981EBCF838DE80FF11DE35AFF4F608307
:1022B000D6015B960C935B975296ED91FC915397E8
:1022C000808180620CC0D6015696ED91FC915797A3
:1022D00060835096ED91FC9151978081806480835A
:1022E00081E090E00F90DF91CF911F910F91FF90CF
:1022F000DF90CF9008955058BB27AA270ED048C131
:1023000039D130F03ED120F031F49F3F11F41EF46A
:102310002EC10EF4E095E7FB24C1E92F4AD180F3EA
:10232000BA17620773078407950718F071F49EF5D2
:1023300062C10EF4E0950B2EBA2FA02D0B01B9014E
:1023400090010C01CA01A0011124FF27591B99F02B
:10235000593F50F4503E68F11A16F040A22F232F37
:10236000342F4427585FF3CF469537952795A79587
:10237000F0405395C9F77EF41F16BA0B620B730B2E
:10238000840BBAF09150A1F0FF0FBB1F661F771F9F
:10239000881FC2F70EC0BA0F621F731F841F48F454
:1023A000879577956795B795F7959E3F08F0B3CFDA
:1023B0009395880F08F09927EE0F979587950895C4
:1023C0000CD0E6C0DED040F0D5D030F021F45F3F35
:1023D00019F0C7C0511110C1CAC0EBD098F39923AE
:1023E000C9F35523B1F3951B550BBB27AA276217D9
:1023F0007307840738F09F5F5F4F220F331F441F1E
:10240000AA1FA9F333D00E2E3AF0E0E830D0915055
:102410005040E695001CCAF729D0FE2F27D0660F42
:10242000771F881FBB1F261737074807AB07B0E881
:1024300009F0BB0B802DBF01FF2793585F4F2AF097
:102440009E3F510568F08DC0D7C05F3FECF3983ECA
:10245000DCF3869577956795B795F7959F5FC9F7F4
:10246000880F911D9695879597F90895E1E0660F7D
:10247000771F881FBB1F621773078407BA0720F0F6
:10248000621B730B840BBA0BEE1F88F7E09508955F
:1024900098D088F09F5790F0B92F9927B751A0F0A6
:1024A000D1F0660F771F881F991F1AF0BA95C9F7E8
:1024B00012C0B13081F09FD0B1E008959CC0672F69
:1024C000782F8827B85F39F0B93FCCF38695779598
:1024D0006795B395D9F73EF4909580957095619581
:1024E0007F4F8F4F9F4F0895E89409C097FB3EF4AC
:1024F00090958095709561957F4F8F4F9F4F992351
:10250000A9F0F92F96E9BB279395F69587957795CE
:102510006795B795F111F8CFFAF4BB0F11F460FF8E
:102520001BC06F5F7F4F8F4F9F4F16C0882311F0E6
:1025300096E911C0772321F09EE8872F762F05C0FA
:10254000662371F096E8862F70E060E02AF09A9595
:10255000660F771F881FDAF7880F9695879597F98A
:10256000089597F99F6780E870E060E008959FEF15
:1025700080EC089500240A9416161706180609061A
:10258000089500240A9412161306140605060895E9
:10259000092E0394000C11F4882352F0BB0F40F471
:1025A000BF2B11F460FF04C06F5F7F4F8F4F9F4FB1
:1025B000089557FD9058440F551F59F05F3F71F033
:1025C0004795880F97FB991F61F09F3F79F087959A
:1025D0000895121613061406551FF2CF4695F1DF23
:1025E00008C0161617061806991FF1CF86957105B3
:1025F000610508940895E894BB2766277727CB01E7
:1026000097F908950BD0C4CFB5DF28F0BADF18F0E2
:10261000952309F0A6CFABCF1124EECFCADFA0F3EC
:10262000959FD1F3950F50E0551F629FF001729F67
:10263000BB27F00DB11D639FAA27F00DB11DAA1F86
:10264000649F6627B00DA11D661F829F2227B00DD3
:10265000A11D621F739FB00DA11D621F839FA00D5E
:10266000611D221F749F3327A00D611D231F849FAE
:10267000600D211D822F762F6A2F11249F57504005
:102680008AF0E1F088234AF0EE0FFF1FBB1F661FA0
:10269000771F881F91505040A9F79E3F510570F059
:1026A00060CFAACF5F3FECF3983EDCF38695779539
:1026B0006795B795F795E7959F5FC1F7FE2B880F54
:1026C000911D9695879597F90895991B79E004C017
:1026D000991F961708F0961B881F7A95C9F7809561
:1026E0000895A1E21A2EAA1BBB1BFD010DC0AA1F53
:1026F000BB1FEE1FFF1FA217B307E407F50720F06B
:10270000A21BB30BE40BF50B661F771F881F991FE5
:102710001A9469F760957095809590959B01AC012E
:10272000BD01CF010895EE0FFF1F0590F491E02D3C
:102730000994CF93DF938230910510F482E090E00A
:10274000E0917703F091780320E030E0A0E0B0E082
:10275000309739F14081518148175907B8F048172F
:10276000590771F482819381109729F013969C93F5
:102770008E9312972CC0909378038093770327C091
:102780002115310531F04217530718F0A901DB017B
:1027900001C0EF019A01BD01DF010280F381E02D4C
:1027A000D7CF21153105F9F0281B390B243031051D
:1027B00080F48A819B816115710521F0FB0193836F
:1027C000828304C09093780380937703FE0132964E
:1027D00044C0FE01E20FF31F81939193225031090F
:1027E000398328833AC02091750330917603232BD7
:1027F00041F420910201309103013093760320933C
:10280000750320910001309101012115310541F43A
:102810002DB73EB74091040150910501241B350BA3
:10282000E0917503F0917603E217F307A0F42E1BF5
:102830003F0B2817390778F0AC014E5F5F4F241724
:10284000350748F04E0F5F1F509376034093750392
:102850008193919302C0E0E0F0E0CF01DF91CF914E
:102860000895CF93DF93009709F487C0FC01329756
:1028700013821282C0917703D0917803209781F45C
:1028800020813181280F391F809175039091760343
:102890008217930779F5F0937603E09375036DC083
:1028A000DE0120E030E0AE17BF0750F412964D91E4
:1028B0005C9113979D014115510509F1DA01F3CFA0
:1028C000B383A28340815181840F951F8A179B0790
:1028D00071F48D919C911197840F951F02969183AD
:1028E000808312968D919C911397938382832115F7
:1028F000310529F4F0937803E09377033EC0D901C2
:102900001396FC93EE9312974D915D91A40FB51F12
:10291000EA17FB0779F480819181840F951F029655
:10292000D90111969C938E938281938113969C93E7
:102930008E931297E0E0F0E08A819B81009719F076
:10294000FE01EC01F9CFCE01029628813981820F78
:10295000931F20917503309176032817390769F486
:10296000309729F4109278031092770302C01382F3
:102970001282D0937603C0937503DF91CF910895AF
:1029800081E090E0F8940C94D414FB01DC014150F8
:10299000504048F001900D920020C9F701C01D92EF
:1029A00041505040E0F7089510E0CAECD0E004C078
:1029B000FE010E9495132296CC3CD107C9F7F894EA
:0229C000FFCF47
:1029C20000007903800007040809050602030001DC
:1029D2000D496E697469616C697A696E672E2E2E73
:1029E200004C65747320474F2121210050757420DB
:1029F2006D6520646F776E212121004E6F20626524
:102A020061636F6E207369676E616C00696E20721C
:102A1200616E67652E2E2E0020204D652020202F0E
:102A22002020204974200030002020202F20200068
:102A3200546F6F20636C6F7365210020434D00005B
:102A420000000080035303280330034303520300B2
:102A5200000000EA07EE0F424E4F3035350000000D
:102A62000000F007FD07F607350F350F00000000E4
:102A7200F7070408F6078D0A0B080000000016117C
:0A2A8200EE0F9810B110A310F4102D
:00000001FF
