:100000000C9479000C94A1000C94A1000C94A10014
:100010000C94A1000C94A1000C94A1000C94A100DC
:100020000C94A1000C94A1000C94A1000C94A100CC
:100030000C94A1000C94A1000C94A1000C94A100BC
:100040000C947E040C94A1000C9407030C94E10220
:100050000C94A1000C94A1000C94A1000C94A1009C
:100060000C94C8040C94A100084AD73B3BCE016E07
:1000700084BCBFFDC12F3D6C74319ABD56833DDAFF
:100080003D00C77F11BED9E4BB4C3E916BAAAABE0E
:10009000000000803F0000000000240027002A002C
:1000A00000000000250028002B00000000002300B5
:1000B00026002900040404040404040402020202C9
:1000C000020203030303030301020408102040801B
:1000D000010204081020010204081020000000089A
:1000E00000020100000304070000000000000000FF
:1000F0001C0C11241FBECFEFD8E0DEBFCDBF11E036
:10010000A0E0B1E0E8E7FFE102C005900D92A23E59
:10011000B107D9F723E0A2EEB1E001C01D92AB37E1
:10012000B207E1F710E0C9E7D0E004C02197FE0173
:100130000E94CC0CC837D107C9F70E94A0090C94C3
:10014000BA0F0C940000CF92DF92EF92FF920F93C0
:100150001F93CF93DF936C017A018B01C0E0D0E055
:10016000CE15DF0589F0D8016D918D01D601ED9195
:10017000FC910190F081E02DC6010995892B11F4C5
:100180007E0102C02196ECCFC701DF91CF911F9174
:100190000F91FF90EF90DF90CF900895FC01918D2B
:1001A000828D981761F0828DDF01A80FB11D5D96D9
:1001B0008C91928D9F5F9F73928F90E008958FEF47
:1001C0009FEF0895FC01918D828D981731F0828DFB
:1001D000E80FF11D858D90E008958FEF9FEF089552
:1001E000FC01918D228D892F90E0805C9F4F821BB6
:1001F00091098F739927089582EB92E00E94F00095
:1002000021E0892B09F420E0822F0895FC01848DE0
:10021000DF01A80FB11DA35ABF4F2C91848D90E030
:1002200001968F739927848FA689B7892C93A0890B
:10023000B1898C9180648C93938D848D981306C0C2
:100240000288F389E02D80818F7D80830895EF926D
:10025000FF920F931F93CF93DF93EC0181E0888F80
:100260009B8D8C8D981305C0E889F989808185FD67
:1002700024C0F62E0B8D10E00F5F1F4F0F73112758
:10028000E02E8C8DE8120CC00FB607FCFACFE8897F
:10029000F989808185FFF5CFCE010E940601F1CF5B
:1002A0008B8DFE01E80FF11DE35AFF4FF0820B8F9B
:1002B000EA89FB898081806207C0EE89FF896083BB
:1002C000E889F98980818064808381E090E0DF9112
:1002D000CF911F910F91FF90EF900895CF93DF93EF
:1002E000EC01888D8823C9F0EA89FB89808185FD2E
:1002F00005C0A889B9898C9186FD0FC00FB607FC8F
:10030000F5CF808185FFF2CFA889B9898C9185FFCF
:10031000EDCFCE010E940601E7CFDF91CF91089586
:1003200080E090E0892B29F00E94FC0081110C9460
:1003300000000895833081F028F4813099F08230F4
:10034000A1F008958730A9F08830B9F08430D1F455
:10035000809180008F7D03C0809180008F77809393
:100360008000089584B58F7702C084B58F7D84BDE9
:1003700008958091B0008F7703C08091B0008F7D89
:100380008093B00008953FB7F89480912A0290912D
:100390002B02A0912C02B0912D0226B5A89B05C07E
:1003A0002F3F19F00196A11DB11D3FBFBA2FA92FF4
:1003B000982F8827820F911DA11DB11DBC01CD0171
:1003C00042E0660F771F881F991F4A95D1F708955D
:1003D0008F929F92AF92BF92CF92DF92EF92FF9255
:1003E0006B017C010E94C3014B015C01C114D1046B
:1003F000E104F104F1F00E94C301DC01CB01881992
:100400009909AA09BB09883E9340A105B10570F37B
:1004100021E0C21AD108E108F10888EE880E83E0D5
:10042000981EA11CB11CC114D104E104F10419F7F8
:10043000DDCFFF90EF90DF90CF90BF90AF909F9077
:100440008F90089585ED8093BC008091BC0084FD61
:10045000FCCF10928E02089540910402262F30E0C6
:10046000240F311D21323105DCF420918E0224301D
:10047000C9F4FC0180E090E0861758F43091040242
:100480002191DC01AE51BE4FA30FB11D2C930196FB
:10049000F3CF80910402680F6093040280E0089516
:1004A00081E0089582E008950895E09133028091FB
:1004B0003202E81730F4F0E0EC5CFD4F808190E010
:1004C00008958FEF9FEF089590913302809132024B
:1004D000981750F4E92FF0E0EC5CFD4F208130E0FC
:1004E0009F5F9093330202C02FEF3FEFC901089541
:1004F0008091320290E020913302821B910908958D
:10050000CF92DF92EF92FF920F931F93CF93DF93DF
:100510007C01262F972F8A0180918F02882391F0EA
:10052000C62FD72F6E01C40ED51ECC15DD0571F078
:100530006991D701ED91FC910190F081E02DC70107
:100540000995F3CF642F822F0E942C02C801DF91FE
:10055000CF911F910F91FF90EF90DF90CF90089572
:10056000CF93DF931F92CDB7DEB7698320918F02BF
:100570002223D1F02091B102203240F021E030E07E
:10058000FC013383228380E090E015C080919002CB
:10059000E82FF0E0EF56FD4F998190838F5F8093B5
:1005A00090028093B10205C061E0CE0101960E94E5
:1005B0002C0281E090E00F90DF91CF9108950E948E
:1005C000B50F1F920F920FB60F9211242F933F93E6
:1005D0004F935F936F937F938F939F93AF93BF934B
:1005E000EF93FF9382EB92E00E940601FF91EF915F
:1005F000BF91AF919F918F917F916F915F914F913B
:100600003F912F910F900FBE0F901F9018951F9242
:100610000F920FB60F9211242F938F939F93EF9306
:10062000FF93E091C202F091C3028081E091C80281
:10063000F091C90282FD12C090818091CB028F5F40
:100640008F732091CC02821751F0E091CB02F0E041
:10065000EE54FD4F958F8093CB0201C08081FF91B6
:10066000EF919F918F912F910F900FBE0F901F9040
:100670001895CF93DF93282F30E0F901E452FF4F14
:100680008491F901E853FF4FD491F901EC54FF4FE5
:10069000C491CC2391F081110E949A01EC2FF0E0DB
:1006A000EE0FFF1FE655FF4FA591B491EC91ED239E
:1006B00081E090E021F480E002C080E090E0DF91F2
:1006C000CF9108951F93CF93DF93282F30E0F90146
:1006D000E452FF4F8491F901E853FF4FD491F9019F
:1006E000EC54FF4FC491CC23C9F0162F81110E9406
:1006F0009A01EC2FF0E0EE0FFF1FE056FF4FA5919F
:10070000B4918FB7F894111105C09C91ED2FE0952D
:10071000E92302C0EC91ED2BEC938FBFDF91CF91D9
:100720001F91089510928E0281E080938D021092A5
:10073000680261E082E10E94620361E083E10E945D
:100740006203E9EBF0E080818E7F808380818D7F82
:10075000808388E48093B80085E48093BC0008958A
:10076000CF93DF9390E0FC01E853FF4F2491FC010D
:10077000EC54FF4F8491882361F190E0880F991F1A
:10078000FC01EA56FF4FC591D491FC01E056FF4FA2
:10079000A591B491611109C09FB7F8948881209503
:1007A00082238883EC912E230BC0623061F49FB7C3
:1007B000F8943881822F809583238883EC912E2BA7
:1007C0002C939FBF06C08FB7F894E8812E2B288307
:1007D0008FBFDF91CF910895EF92FF920F931F93F8
:1007E000CF93DF938C017B01880F991FE80122963C
:1007F000FC01E050FF4F6230710564F461E08081DC
:100800000E946203EF2871F4CC0FDD1FC050DF4F50
:1008100061E00DC060E080810E94620382E0E81622
:10082000F10491F3CC0FDD1FC050DF4F60E08881F1
:100830000E946203000F111FF801E85FFE4FC081A4
:10084000D18161E08C2F0E94B003FE01FF27E452AA
:10085000FF4FE491E33019F150F4E130D1F0E23090
:10086000E1F584B5806284BD8BE488BD40C0E7308B
:1008700011F1E83049F1E43081F580918000806227
:10088000809380008BE490E090938B0080938A00AB
:100890002EC084B5806884BD8BE487BD28C080915C
:1008A00080008068809380008BE490E090938900C2
:1008B000809388001CC08091B00080688093B00055
:1008C0008BE48093B30013C08091B000806280936A
:1008D000B0008BE48093B4000AC060E08C2FDF91FD
:1008E000CF911F910F91FF90EF900C946203DF91D5
:1008F000CF911F910F91FF90EF9008951F920F924B
:100900000FB60F9211242F933F938F939F93AF9322
:10091000BF9380912E0290912F02A0913002B0914E
:1009200031023091290223E0230F2D3720F4019664
:10093000A11DB11D05C026E8230F0296A11DB11D02
:100940002093290280932E0290932F02A0933002CD
:10095000B093310280912A0290912B02A0912C0237
:10096000B0912D020196A11DB11D80932A02909392
:100970002B02A0932C02B0932D02BF91AF919F91B7
:100980008F913F912F910F900FBE0F901F90189550
:100990001F920F920FB60F9211242F933F934F93F4
:1009A0005F936F937F938F939F93AF93BF93EF93D7
:1009B000FF938091B900887F803609F49CC068F568
:1009C000883209F45BC090F4803109F454C038F4E3
:1009D000882309F4F6C0883009F44DC0F6C0883188
:1009E00009F44CC0803209F45DC0EFC0803409F4D2
:1009F00068C048F4803309F455C0883309F0E5C075
:100A000080938C02D8C0803509F44FC0883509F432
:100A10005DC0883409F0D9C0D6C0883909F4C7C090
:100A2000A8F4883709F467C038F4883609F463C03D
:100A3000803709F460C0C9C0883809F4B8C080396B
:100A400009F45FC0803809F0C0C05BC0803B09F486
:100A500086C038F4803A09F466C0883A09F47FC049
:100A6000B4C0803C09F4A7C0883C09F4A4C0883B0A
:100A700009F48AC0AAC08091690210C090918B02CB
:100A800080918A02981770F5E0918B0281E08E0FB9
:100A900080938B02F0E0E659FD4F80818093BB008C
:100AA00085EC86C080938C028EC0E0918B0281E041
:100AB0008E0F80938B028091BB00F0E0E659FD4FD2
:100AC000808390918B0280918A026EC0E0918B02AC
:100AD00081E08E0F80938B028091BB00F0E0E6599D
:100AE000FD4F808380918D0281116DC081E08093E4
:100AF000680284EA61C083E080938E02109228022B
:100B0000CFCF80912802803208F051C0E0912802B6
:100B100081E08E0F809328028091BB00F0E0E85FB7
:100B2000FD4F8083BDCF85EC8093BC0010928E0278
:100B300080912802803230F4E0912802F0E0E85FF2
:100B4000FD4F10826091280270E0E0910602F09162
:100B5000070288E092E009951092280236C084E0EE
:100B600080938E021092050210920402E09102021C
:100B7000F0910302099580910402811105C081E082
:100B8000809304021092E201E091050281E08E0F51
:100B900080930502F0E0EE51FE4F80818093BB0010
:100BA0009091050280910402981708F479CF85E8A6
:100BB0008093BC000AC085EC8093BC0010928E022A
:100BC00004C010928C020E942202FF91EF91BF910B
:100BD000AF919F918F917F916F915F914F913F91D5
:100BE0002F910F900FBE0F901F9018952091B1027A
:100BF00090917A03213208F04AC080918E028111CF
:100C0000FCCF32E030938E0231E030938D023FEF23
:100C100030938C0210928B0220938A02A1E9B2E0F9
:100C20004AE652E0FA013E2F341B321718F43D9188
:100C30003193F9CF1092690220916902990F922B9A
:100C40009093690290916802913061F41092680269
:100C5000909169029093BB009091BC0093FDF8CFF6
:100C600095EC01C095EE9093BC0090918E0292306D
:100C7000E1F390918C029F3F79F080918C02803259
:100C800041F080918C02803331F084E005C081E036
:100C900003C082E001C083E0109290021092B10282
:100CA00010928F02089590918E029111FCCF6132C3
:100CB00008F060E291E090938E0290938D022FEF06
:100CC00020938C0210928B02260F20938A0290931D
:100CD000690290916902880F892B80936902809143
:100CE0006802813061F410926802809169028093F9
:100CF000BB008091BC0083FDF8CF85EC01C085EE80
:100D00008093BC0080918E028130E1F380918B0250
:100D1000861710F460918B02AAE6B2E024E332E079
:100D2000F9018E2F821B861718F48D918193F9CFCC
:100D30001092330260933202862F08950F931F930F
:100D4000CF93DF9311E010938F029EE190937A038B
:100D5000109290021092B102682F8FE493E00E94EB
:100D6000B0020E94F60510938F021092900210922A
:100D7000B10262E070E08EE190E00E945306909133
:100D80003202809133029817F1F38FE493E00E94CE
:100D90006402082F8FE493E00E946402182F0E94DF
:100DA000F605D02F80E0C82FCE01812BDF91CF91A7
:100DB0001F910F91089580916A030E943903892B36
:100DC00071F081E020916A0330916B03213031058D
:100DD00009F080E00E943903892B19F4089581E01D
:100DE000089580E00895009769F0FC0101900020CB
:100DF000E9F73197AF01481B590BBC0182EB92E038
:100E00000C94A30080E090E00895CF93DF930E94BC
:100E1000F306EC018CEB91E00E94F3068C0F9D1F12
:100E2000DF91CF910895CF93C62F91E090938F02D9
:100E30009EE190937A03109290021092B102682F73
:100E40008FE493E00E94B0026C2F8FE493E00E9445
:100E5000B002CF910C94F605CF93C1E0C0938F02FE
:100E60009EE190937A03109290021092B102682F43
:100E70008FE493E00E94B0020E94F605C0938F02B7
:100E8000109290021092B10261E070E08EE190E069
:100E90000E94530690913202809133029817F1F329
:100EA0008FE493E00E946402C82F0E94F6058C2F05
:100EB000CF91089582E00E942C07682F6C7F82E01A
:100EC0000C941307CF9391E090938F029EE190933F
:100ED0007A03109290021092B102682F8FE493E08F
:100EE0000E94B0020E94F60561E070E08EE190E0A1
:100EF0000E9453068FE493E00E946402C82F0E9470
:100F0000F6058C2FCF9108950F931F93CF93DF9306
:100F1000EC0100E011E060E0F80180810E946203D2
:100F200060E0F80184810E94620360E0F801828140
:100F30000E94620360E0F80186810E946203CC0F88
:100F4000DD1FC85FDE4FC88161E08C2F0E94B003B7
:100F500060E08C2FDF91CF911F910F910C94620371
:100F60000F931F9361E080915B030E94B00360E0E8
:100F700080915B030E94620383E090E00197F1F7A8
:100F800061E080915B030E9462038FE090E0019733
:100F9000F1F760E080915B030E94620360E0809162
:100FA0005B030E94B00380915B0390915C039927DF
:100FB000FC01E853FF4F6491FC01EC54FF4FE491B6
:100FC000F0E0EE0FFF1FE655FF4F8591949100E48E
:100FD00012E42FE030E0462F0E945B096115710595
:100FE0008105910539F0DC01CB010196A11DB11DF0
:100FF000BF7003C080E090E0DC0190935E038093BB
:101000005D036AE370E00E94820C70936203609358
:1010100061031F910F91089562E070E088E090E015
:101020000E9453068FE493E00E946402909367034A
:10103000809366038FE493E00E94640290936903B7
:101040008093680320E030E030916603282B392B31
:101050002F3F3F4F19F410926303089581E080936E
:101060006303089562E070E088E090E00E94530618
:101070008FE493E00E946402909367038093660379
:101080008FE493E00E946402909369038093680365
:1010900020E030E030916603822B932B9C01245B8F
:1010A0003109283641E034071CF02856314005C08C
:1010B00037FF03C09C012C543F4F309365032093AE
:1010C00064030895CF92DF92EF92FF9283E00E9433
:1010D0009E06BC01990F880B990B0E94600E6B0154
:1010E0007C018091640290916502BC01990F880B8C
:1010F000990B0E94600E9B01AC01C701B6010E94D2
:10110000D20C2091540230915502409156025091D8
:1011100057020E94440F60935802709359028093C3
:101120005A0290935B0287E00E949E06BC01990FD1
:10113000880B990B0E94600E6B017C018091660206
:1011400090916702BC01990F880B990B0E94600E69
:101150009B01AC01C701B6010E94D20C2091540240
:101160003091550240915602509157020E94440F0F
:1011700060935C0270935D0280935E0290935F02C5
:1011800085E00E949E06BC01990F880B990B0E9476
:10119000600E2091540230915502409156025091B8
:1011A00057020E94440F6093600270936102809323
:1011B000620290936302209158023091590240914B
:1011C0005A0250915B0260915C0270915D028091C5
:1011D0005E0290915F020E94520D20917603309141
:1011E000770340917803509179030E94D30C6B01EF
:1011F0007C0160936E0370936F03809370039093F0
:10120000710320E030E0A9010E94B10D87FF10C0FA
:101210002BED3FE049EC50E4C701B6010E94D30C2E
:1012200060936E0370936F038093700390937103C8
:10123000C0906E03D0906F03E0907003F090710344
:101240002BED3FE049EC50E4C701B6010E94370F97
:10125000181684F42BED3FE049EC50E4C701B601C9
:101260000E94D20C60936E0370936F03809370039F
:101270009093710320E030E044E353E460916E0307
:1012800070916F0380917003909171030E94440FDD
:101290002BED3FE049E450E40E94B60D60937203E9
:1012A000709373038093740390937503FF90EF9092
:1012B000DF90CF900895CF92DF92EF92FF920F933D
:1012C0001F93E82FF92F05C0015011092109310999
:1012D00061F1908196239417B9F305C0015011096B
:1012E0002109310911F1908196239413F7CFC12C74
:1012F000D12CE12CF12C0AC08FEFC81AD80AE80AC9
:10130000F80A0C151D052E053F0579F0808186230E
:10131000841791F36C2D7D2D8E2D9F2D1F910F9194
:10132000FF90EF90DF90CF90089560E070E080E054
:1013300090E01F910F91FF90EF90DF90CF90089574
:10134000CF93DF93CDB7DEB7A1970FB6F894DEBF8A
:101350000FBECDBF789484B5826084BD84B58160B2
:1013600084BD85B5826085BD85B5816085BD809170
:101370006E00816080936E001092810080918100E8
:1013800082608093810080918100816080938100E0
:10139000809180008160809380008091B1008460A2
:1013A0008093B1008091B00081608093B000809103
:1013B0007A00846080937A0080917A0082608093C2
:1013C0007A0080917A00816080937A0080917A001F
:1013D000806880937A001092C100E091C202F0917F
:1013E000C30282E08083E091BE02F091BF021082CE
:1013F000E091C002F091C10280E180831092CA02A4
:10140000E091C602F091C70286E08083E091C402B9
:10141000F091C502808180618083E091C402F091E7
:10142000C502808188608083E091C402F091C5028A
:10143000808180688083E091C402F091C502808140
:101440008F7D808386E391E00E94050768EE73E05C
:1014500080E090E00E94E80160E080916A030E94D1
:10146000B00361E0809114010E94B00300E011E03C
:10147000F80180810E5F1F4F61E00E94B00361E0C0
:10148000F80182810E94B00361E0F80186810E9428
:10149000B003F1E004301F0759F760E080910001CC
:1014A0000E94620360E0809104010E94620360E098
:1014B000809102010E94620360E0809106010E9417
:1014C0006203109233021092320210929002109234
:1014D000B1020E9492038AE00E946207883459F0A8
:1014E00086E491E00E94050764EF71E080E090E0FF
:1014F0000E94E801E6CF8BE00E946207843381F707
:101500008CE00E946207833359F78FE1C82E85E88B
:10151000D82E8BE6E82E8FE3F82EC0925402D0929C
:101520005502E0925602F092570260E281E00E947A
:1015300013070E945A0780E00E942C07837E682FC1
:10154000606180E00E94130780E00E942C07682FF2
:101550006F7980E00E941307C0925402D092550226
:10156000E0925602F092570262E370E080E090E071
:101570000E94E801C0925402D0925502E0925602B5
:10158000F092570260E281E00E9413070E945A071E
:1015900080E00E942C07837E682F646180E00E94B7
:1015A000130780E00E942C07682F606680E00E948D
:1015B0001307109265021092640210926702109253
:1015C0006602109233021092320210929002109230
:1015D000B1020E9492038FEB91E00E94050768EE32
:1015E00073E080E090E00E94E8010E94DB06811138
:1015F00005C08CE791E00E940507F7CF0E940C0818
:1016000080916303882399F080E090E00E94840732
:1016100081E090E00E9484078BE891E00E9405073A
:1016200068EE73E080E090E00E94E801E9CF0E945C
:10163000B00798ECC92ED12CE12CF12C2AE0822E97
:10164000912CA12CB12C809163038111BBC00E940D
:10165000620888EA91E00E94F3066091720370913B
:10166000730380917403909175030E94280E2B01DF
:10167000770F6608770877FE26C0E091B202F091F6
:10168000B3020190F081E02D6DE282EB92E00995CA
:1016900022273327A901241935094609570919A218
:1016A0008E010F5D1F4FCA01B901A50194010E946F
:1016B000960C605DF80162938F012115310541059B
:1016C000510589F715C0A301920119A28E010F5D82
:1016D0001F4FCA01B901A50194010E94960C605DDB
:1016E000F80162938F01211531054105510589F7F4
:1016F000C8010E94F3068CEB91E00E94F3060E9461
:10170000DB06882319F00E940C085CC00E94620866
:101710000E94320860917203709173038091740388
:10172000909175030E94280E809164039091650347
:101730009C01215F3F4F2617370748F10F97681725
:10174000790728F18EEC91E00E94050762E070E0D5
:1017500080E090E00E94EC0361E070E081E090E0C6
:101760000E94EC032FB7F89460912E0270912F0223
:1017700080913002909131022FBFA70196010E9403
:10178000960C672B682B692B11F40E94B0076091AF
:1017900072037091730380917403909175030E949A
:1017A000280ECB0160916403709165039B01215F5A
:1017B0003F4F2817390748F02E51310982179307F8
:1017C00020F0A1CF0E94B0073ECF072E000C880B5F
:1017D000990B0E94600E9B01AC0160916E037091A9
:1017E0006F0380917003909171030E94D20C0E944C
:1017F000280E77FF04C06D347F4F6CF403C0653B47
:1018000071054CF462E070E080E090E00E94EC032F
:1018100062E070E008C061E070E080E090E00E946B
:10182000EC0361E070E081E090E00E94EC030E9434
:1018300062080E94320896CFE2EBF2E01382128235
:1018400088EE93E0A0E0B0E084839583A683B7831D
:101850002AE131E03183208325EC30E0358724878D
:1018600024EC30E03787268720EC30E0318B208B6A
:1018700021EC30E0338B228B22EC30E0358B248B53
:1018800026EC30E0378B268B118E128E138E148E41
:10189000EFE4F3E01382128284839583A683B783F7
:1018A0008AE291E091838083EEE6F3E083E797E7B5
:1018B000AEE9BDE380879187A287B387108211824A
:1018C000128213821482158216821782EAE6F3E0EE
:1018D00082E090E0918380838FEF9FEF93838283F8
:1018E000E3E6F3E0128211821082EBE5F3E013826B
:1018F0001282158214821782168283E090E091830F
:101900008083089597FB072E16F4009407D077FD87
:1019100009D00E94B80C07FC05D03EF49095819543
:101920009F4F0895709561957F4F0895A1E21A2EFB
:10193000AA1BBB1BFD010DC0AA1FBB1FEE1FFF1F73
:10194000A217B307E407F50720F0A21BB30BE40BC3
:10195000F50B661F771F881F991F1A9469F760950A
:101960007095809590959B01AC01BD01CF010895C4
:10197000AA1BBB1B51E107C0AA1FBB1FA617B707B5
:1019800010F0A61BB70B881F991F5A95A9F78095D1
:101990009095BC01CD010895EE0FFF1F0590F491C5
:1019A000E02D09945058BB27AA270E94EA0C0C94FA
:1019B000FD0E0E94EF0E38F00E94F60E20F039F472
:1019C0009F3F19F426F40C94C50E0EF4E095E7FB46
:1019D0000C94BF0EE92F0E940E0F58F3BA1762073E
:1019E00073078407950720F079F4A6F50C94300F5F
:1019F0000EF4E0950B2EBA2FA02D0B01B90190012A
:101A00000C01CA01A0011124FF27591B99F0593F6D
:101A100050F4503E68F11A16F040A22F232F342FB5
:101A20004427585FF3CF469537952795A795F04003
:101A30005395C9F77EF41F16BA0B620B730B840B18
:101A4000BAF09150A1F0FF0FBB1F661F771F881FD0
:101A5000C2F70EC0BA0F621F731F841F48F4879528
:101A600077956795B795F7959E3F08F0B0CF93951A
:101A7000880F08F09927EE0F9795879508950E9493
:101A8000EF0E60F080E891E009F49EEF0E94F60E00
:101A900028F040E851E071F45EEF0CC00C94C50EE4
:101AA0000C94300FE92FE0780E940E0F40F3092EBE
:101AB000052AB1F3261737074807590738F00E2EC5
:101AC00007F8E02569F0E025E0640AC0EF6307F855
:101AD000009407FADB01B9019D01DC01CA01AD01E7
:101AE000EF930E94CD0D0E94FD0E0E94820D5F912A
:101AF000552339F02BED3FE049E450FD49EC0C94BF
:101B0000D30C0895DF93DD27B92FBF7740E85FE35B
:101B10001616170648075B0718F4D92F0E943C0FCA
:101B20009F938F937F936F930E94B10FE8E6F0E04D
:101B30000E94C80E0E94FD0E2F913F914F915F9120
:101B40000E94570FDD2351F09058A2EA2AED3FE0A2
:101B500049EC5FE3D0785D270E94EA0CDF910C949A
:101B6000FD0E0E949B0E08F481E008950E94CA0DAC
:101B70000C94FD0E0E94F60E58F00E94EF0E40F0FD
:101B800029F45F3F29F00C94BF0E51110C94310FD2
:101B90000C94C50E0E940E0F68F39923B1F35523E0
:101BA00091F3951B550BBB27AA2762177307840770
:101BB00038F09F5F5F4F220F331F441FAA1FA9F306
:101BC00035D00E2E3AF0E0E832D091505040E695F4
:101BD000001CCAF72BD0FE2F29D0660F771F881F55
:101BE000BB1F261737074807AB07B0E809F0BB0B48
:101BF000802DBF01FF2793585F4F3AF09E3F51055C
:101C000078F00C94BF0E0C94310F5F3FE4F3983ED4
:101C1000D4F3869577956795B795F7959F5FC9F744
:101C2000880F911D9695879597F90895E1E0660FC5
:101C3000771F881FBB1F621773078407BA0720F03E
:101C4000621B730B840BBA0BEE1F88F7E0950895A7
:101C50000E942F0E6894B1110C94310F08950E94C8
:101C6000160F88F09F5798F0B92F9927B751B0F009
:101C7000E1F0660F771F881F991F1AF0BA95C9F710
:101C800014C0B13091F00E94300FB1E008950C946F
:101C9000300F672F782F8827B85F39F0B93FCCF322
:101CA000869577956795B395D9F73EF4909580958D
:101CB000709561957F4F8F4F9F4F0895E89409C0AD
:101CC00097FB3EF490958095709561957F4F8F4F6F
:101CD0009F4F9923A9F0F92F96E9BB279395F69585
:101CE000879577956795B795F111F8CFFAF4BB0F03
:101CF00011F460FF1BC06F5F7F4F8F4F9F4F16C067
:101D0000882311F096E911C0772321F09EE8872FF0
:101D1000762F05C0662371F096E8862F70E060E0AC
:101D20002AF09A95660F771F881FDAF7880F969525
:101D3000879597F90895990F0008550FAA0BE0E8C9
:101D4000FEEF16161706E807F907C0F0121613067D
:101D5000E407F50798F0621B730B840B950B39F4BD
:101D60000A2661F0232B242B252B21F408950A2623
:101D700009F4A140A6958FEF811D811D089597F963
:101D80009F6780E870E060E008959FEF80EC089521
:101D9000DF93CF931F930F93FF92EF92DF927B011C
:101DA0008C01689406C0DA2EEF010E94570FFE01E5
:101DB000E894A5912591359145915591A6F3EF01B0
:101DC0000E94EA0CFE019701A801DA9469F7DF90FE
:101DD000EF90FF900F911F91CF91DF910895002414
:101DE0000A941616170618060906089500240A9480
:101DF00012161306140605060895092E0394000C06
:101E000011F4882352F0BB0F40F4BF2B11F460FF94
:101E100004C06F5F7F4F8F4F9F4F089557FD9058BD
:101E2000440F551F59F05F3F71F04795880F97FB9E
:101E3000991F61F09F3F79F0879508951216130658
:101E40001406551FF2CF4695F1DF08C01616170687
:101E50001806991FF1CF86957105610508940895BC
:101E6000E894BB2766277727CB0197F908950E944E
:101E70009B0E08F48FEF08959B01AC0160E070E0C9
:101E800080E89FE30C94B60D0E94570F0C94FD0E52
:101E90000E94EF0E38F00E94F60E20F0952311F00C
:101EA0000C94BF0E0C94C50E11240C94310F0E949B
:101EB0000E0F70F3959FC1F3950F50E0551F629F71
:101EC000F001729FBB27F00DB11D639FAA27F00D93
:101ED000B11DAA1F649F6627B00DA11D661F829FBA
:101EE0002227B00DA11D621F739FB00DA11D621F9F
:101EF000839FA00D611D221F749F3327A00D611DBC
:101F0000231F849F600D211D822F762F6A2F11249D
:101F10009F5750409AF0F1F088234AF0EE0FFF1FD0
:101F2000BB1F661F771F881F91505040A9F79E3F27
:101F3000510580F00C94BF0E0C94310F5F3FE4F319
:101F4000983ED4F3869577956795B795F795E7957D
:101F50009F5FC1F7FE2B880F911D9695879597F986
:101F600008959B01AC010C94440F81E090E0F8943B
:081F70000C94BA0FF894FFCFA6
:101F7800070004000800090005000600020003002D
:101F8800000001000D00000000002701A300F00080
:101F9800CE00E2006E0100000000B002800278026C
:101FA800640255025402496E697469616C697A6900
:101FB8006E672E2E2E00436F756C64206E6F742032
:101FC80066696E6420612076616C696420484D43BF
:101FD800353838334C2073656E736F722C20636804
:101FE80065636B20776972696E672100507574208C
:101FF8006D6520646F776E212121004E6F20626528
:1020080061636F6E207369676E616C20696E207200
:10201800616E67652E2E2E00436F7272656374655C
:10202800642068656164696E673A20000D0A00499A
:102038006E697469616C697A65642121210046754D
:102048006C6C20737465616D206168656164212121
:02205800210065
:00000001FF
